{
  "_format": "hh-sol-artifact-1",
  "contractName": "DuoNFTV2",
  "sourceName": "contracts/DuoNFTV2.sol",
  "abi": [
    {
      "anonymous": false,
      "inputs": [
        {
          "indexed": true,
          "internalType": "address",
          "name": "owner",
          "type": "address"
        },
        {
          "indexed": true,
          "internalType": "address",
          "name": "approved",
          "type": "address"
        },
        {
          "indexed": true,
          "internalType": "uint256",
          "name": "tokenId",
          "type": "uint256"
        }
      ],
      "name": "Approval",
      "type": "event"
    },
    {
      "anonymous": false,
      "inputs": [
        {
          "indexed": true,
          "internalType": "address",
          "name": "owner",
          "type": "address"
        },
        {
          "indexed": true,
          "internalType": "address",
          "name": "operator",
          "type": "address"
        },
        {
          "indexed": false,
          "internalType": "bool",
          "name": "approved",
          "type": "bool"
        }
      ],
      "name": "ApprovalForAll",
      "type": "event"
    },
    {
      "anonymous": false,
      "inputs": [
        {
          "indexed": true,
          "internalType": "address",
          "name": "previousOwner",
          "type": "address"
        },
        {
          "indexed": true,
          "internalType": "address",
          "name": "newOwner",
          "type": "address"
        }
      ],
      "name": "OwnershipTransferred",
      "type": "event"
    },
    {
      "anonymous": false,
      "inputs": [
        {
          "indexed": true,
          "internalType": "address",
          "name": "from",
          "type": "address"
        },
        {
          "indexed": true,
          "internalType": "address",
          "name": "to",
          "type": "address"
        },
        {
          "indexed": true,
          "internalType": "uint256",
          "name": "tokenId",
          "type": "uint256"
        }
      ],
      "name": "Transfer",
      "type": "event"
    },
    {
      "inputs": [
        {
          "internalType": "address",
          "name": "to",
          "type": "address"
        },
        {
          "internalType": "uint256",
          "name": "tokenId",
          "type": "uint256"
        }
      ],
      "name": "approve",
      "outputs": [],
      "stateMutability": "nonpayable",
      "type": "function"
    },
    {
      "inputs": [
        {
          "internalType": "address",
          "name": "owner",
          "type": "address"
        }
      ],
      "name": "balanceOf",
      "outputs": [
        {
          "internalType": "uint256",
          "name": "",
          "type": "uint256"
        }
      ],
      "stateMutability": "view",
      "type": "function"
    },
    {
      "inputs": [
        {
          "internalType": "uint256",
          "name": "tokenId",
          "type": "uint256"
        }
      ],
      "name": "getApproved",
      "outputs": [
        {
          "internalType": "address",
          "name": "",
          "type": "address"
        }
      ],
      "stateMutability": "view",
      "type": "function"
    },
    {
      "inputs": [
        {
          "internalType": "string",
          "name": "name",
          "type": "string"
        },
        {
          "internalType": "string",
          "name": "symbol",
          "type": "string"
        }
      ],
      "name": "initialize",
      "outputs": [],
      "stateMutability": "nonpayable",
      "type": "function"
    },
    {
      "inputs": [
        {
          "internalType": "address",
          "name": "owner",
          "type": "address"
        },
        {
          "internalType": "address",
          "name": "operator",
          "type": "address"
        }
      ],
      "name": "isApprovedForAll",
      "outputs": [
        {
          "internalType": "bool",
          "name": "",
          "type": "bool"
        }
      ],
      "stateMutability": "view",
      "type": "function"
    },
    {
      "inputs": [
        {
          "internalType": "address",
          "name": "recipient",
          "type": "address"
        },
        {
          "internalType": "string",
          "name": "_tokenURI",
          "type": "string"
        }
      ],
      "name": "mintNFT",
      "outputs": [
        {
          "internalType": "uint256",
          "name": "",
          "type": "uint256"
        }
      ],
      "stateMutability": "nonpayable",
      "type": "function"
    },
    {
      "inputs": [],
      "name": "name",
      "outputs": [
        {
          "internalType": "string",
          "name": "",
          "type": "string"
        }
      ],
      "stateMutability": "view",
      "type": "function"
    },
    {
      "inputs": [],
      "name": "owner",
      "outputs": [
        {
          "internalType": "address",
          "name": "",
          "type": "address"
        }
      ],
      "stateMutability": "view",
      "type": "function"
    },
    {
      "inputs": [
        {
          "internalType": "uint256",
          "name": "tokenId",
          "type": "uint256"
        }
      ],
      "name": "ownerOf",
      "outputs": [
        {
          "internalType": "address",
          "name": "",
          "type": "address"
        }
      ],
      "stateMutability": "view",
      "type": "function"
    },
    {
      "inputs": [],
      "name": "renounceOwnership",
      "outputs": [],
      "stateMutability": "nonpayable",
      "type": "function"
    },
    {
      "inputs": [
        {
          "internalType": "address",
          "name": "from",
          "type": "address"
        },
        {
          "internalType": "address",
          "name": "to",
          "type": "address"
        },
        {
          "internalType": "uint256",
          "name": "tokenId",
          "type": "uint256"
        }
      ],
      "name": "safeTransferFrom",
      "outputs": [],
      "stateMutability": "nonpayable",
      "type": "function"
    },
    {
      "inputs": [
        {
          "internalType": "address",
          "name": "from",
          "type": "address"
        },
        {
          "internalType": "address",
          "name": "to",
          "type": "address"
        },
        {
          "internalType": "uint256",
          "name": "tokenId",
          "type": "uint256"
        },
        {
          "internalType": "bytes",
          "name": "_data",
          "type": "bytes"
        }
      ],
      "name": "safeTransferFrom",
      "outputs": [],
      "stateMutability": "nonpayable",
      "type": "function"
    },
    {
      "inputs": [
        {
          "internalType": "address",
          "name": "operator",
          "type": "address"
        },
        {
          "internalType": "bool",
          "name": "approved",
          "type": "bool"
        }
      ],
      "name": "setApprovalForAll",
      "outputs": [],
      "stateMutability": "nonpayable",
      "type": "function"
    },
    {
      "inputs": [
        {
          "internalType": "bytes4",
          "name": "interfaceId",
          "type": "bytes4"
        }
      ],
      "name": "supportsInterface",
      "outputs": [
        {
          "internalType": "bool",
          "name": "",
          "type": "bool"
        }
      ],
      "stateMutability": "view",
      "type": "function"
    },
    {
      "inputs": [],
      "name": "symbol",
      "outputs": [
        {
          "internalType": "string",
          "name": "",
          "type": "string"
        }
      ],
      "stateMutability": "view",
      "type": "function"
    },
    {
      "inputs": [
        {
          "internalType": "uint256",
          "name": "tokenId",
          "type": "uint256"
        }
      ],
      "name": "tokenURI",
      "outputs": [
        {
          "internalType": "string",
          "name": "",
          "type": "string"
        }
      ],
      "stateMutability": "view",
      "type": "function"
    },
    {
      "inputs": [
        {
          "internalType": "address",
          "name": "from",
          "type": "address"
        },
        {
          "internalType": "address",
          "name": "to",
          "type": "address"
        },
        {
          "internalType": "uint256",
          "name": "tokenId",
          "type": "uint256"
        }
      ],
      "name": "transferFrom",
      "outputs": [],
      "stateMutability": "nonpayable",
      "type": "function"
    },
    {
      "inputs": [
        {
          "internalType": "address",
          "name": "newOwner",
          "type": "address"
        }
      ],
      "name": "transferOwnership",
      "outputs": [],
      "stateMutability": "nonpayable",
      "type": "function"
    },
    {
      "inputs": [],
      "name": "upgradeTest",
      "outputs": [
        {
          "internalType": "string",
          "name": "",
          "type": "string"
        }
      ],
      "stateMutability": "pure",
      "type": "function"
    }
  ],
  "bytecode": "0x608060405234801561001057600080fd5b5061387c806100206000396000f3fe608060405234801561001057600080fd5b50600436106101215760003560e01c806370a08231116100ad578063b88d4fde11610071578063b88d4fde146102f4578063c87b56dd14610310578063e985e9c514610340578063eacabe1414610370578063f2fde38b146103a057610121565b806370a0823114610262578063715018a6146102925780638da5cb5b1461029c57806395d89b41146102ba578063a22cb465146102d857610121565b806323b872dd116100f457806323b872dd146101c05780633d20b15c146101dc57806342842e0e146101fa5780634cd88b76146102165780636352211e1461023257610121565b806301ffc9a71461012657806306fdde0314610156578063081812fc14610174578063095ea7b3146101a4575b600080fd5b610140600480360381019061013b9190612838565b6103bc565b60405161014d9190613174565b60405180910390f35b61015e61049e565b60405161016b919061318f565b60405180910390f35b61018e600480360381019061018991906128f6565b610530565b60405161019b919061310d565b60405180910390f35b6101be60048036038101906101b991906127fc565b6105b5565b005b6101da60048036038101906101d591906126a2565b6106cd565b005b6101e461072d565b6040516101f1919061318f565b60405180910390f35b610214600480360381019061020f91906126a2565b61076a565b005b610230600480360381019061022b919061288a565b61078a565b005b61024c600480360381019061024791906128f6565b61087f565b604051610259919061310d565b60405180910390f35b61027c6004803603810190610277919061263d565b610931565b6040516102899190613411565b60405180910390f35b61029a6109e9565b005b6102a4610a71565b6040516102b1919061310d565b60405180910390f35b6102c2610a9b565b6040516102cf919061318f565b60405180910390f35b6102f260048036038101906102ed919061276c565b610b2d565b005b61030e600480360381019061030991906126f1565b610cae565b005b61032a600480360381019061032591906128f6565b610d10565b604051610337919061318f565b60405180910390f35b61035a60048036038101906103559190612666565b610e62565b6040516103679190613174565b60405180910390f35b61038a600480360381019061038591906127a8565b610ef6565b6040516103979190613411565b60405180910390f35b6103ba60048036038101906103b5919061263d565b610faa565b005b60007f80ac58cd000000000000000000000000000000000000000000000000000000007bffffffffffffffffffffffffffffffffffffffffffffffffffffffff1916827bffffffffffffffffffffffffffffffffffffffffffffffffffffffff1916148061048757507f5b5e139f000000000000000000000000000000000000000000000000000000007bffffffffffffffffffffffffffffffffffffffffffffffffffffffff1916827bffffffffffffffffffffffffffffffffffffffffffffffffffffffff1916145b806104975750610496826110a2565b5b9050919050565b6060609780546104ad90613671565b80601f01602080910402602001604051908101604052809291908181526020018280546104d990613671565b80156105265780601f106104fb57610100808354040283529160200191610526565b820191906000526020600020905b81548152906001019060200180831161050957829003601f168201915b5050505050905090565b600061053b8261110c565b61057a576040517f08c379a000000000000000000000000000000000000000000000000000000000815260040161057190613351565b60405180910390fd5b609b600083815260200190815260200160002060009054906101000a900473ffffffffffffffffffffffffffffffffffffffff169050919050565b60006105c08261087f565b90508073ffffffffffffffffffffffffffffffffffffffff168373ffffffffffffffffffffffffffffffffffffffff161415610631576040517f08c379a0000000000000000000000000000000000000000000000000000000008152600401610628906133d1565b60405180910390fd5b8073ffffffffffffffffffffffffffffffffffffffff16610650611178565b73ffffffffffffffffffffffffffffffffffffffff16148061067f575061067e81610679611178565b610e62565b5b6106be576040517f08c379a00000000000000000000000000000000000000000000000000000000081526004016106b590613271565b60405180910390fd5b6106c88383611180565b505050565b6106de6106d8611178565b82611239565b61071d576040517f08c379a0000000000000000000000000000000000000000000000000000000008152600401610714906133f1565b60405180910390fd5b610728838383611317565b505050565b60606040518060400160405280601081526020017f5570677261646520737563636573732100000000000000000000000000000000815250905090565b61078583838360405180602001604052806000815250610cae565b505050565b600060019054906101000a900460ff16806107b0575060008054906101000a900460ff16155b6107ef576040517f08c379a00000000000000000000000000000000000000000000000000000000081526004016107e6906132f1565b60405180910390fd5b60008060019054906101000a900460ff16159050801561083f576001600060016101000a81548160ff02191690831515021790555060016000806101000a81548160ff0219169083151502179055505b6108498383611573565b610851611668565b610859611759565b801561087a5760008060016101000a81548160ff0219169083151502179055505b505050565b6000806099600084815260200190815260200160002060009054906101000a900473ffffffffffffffffffffffffffffffffffffffff169050600073ffffffffffffffffffffffffffffffffffffffff168173ffffffffffffffffffffffffffffffffffffffff161415610928576040517f08c379a000000000000000000000000000000000000000000000000000000000815260040161091f906132b1565b60405180910390fd5b80915050919050565b60008073ffffffffffffffffffffffffffffffffffffffff168273ffffffffffffffffffffffffffffffffffffffff1614156109a2576040517f08c379a000000000000000000000000000000000000000000000000000000000815260040161099990613291565b60405180910390fd5b609a60008373ffffffffffffffffffffffffffffffffffffffff1673ffffffffffffffffffffffffffffffffffffffff168152602001908152602001600020549050919050565b6109f1611178565b73ffffffffffffffffffffffffffffffffffffffff16610a0f610a71565b73ffffffffffffffffffffffffffffffffffffffff1614610a65576040517f08c379a0000000000000000000000000000000000000000000000000000000008152600401610a5c90613371565b60405180910390fd5b610a6f6000611842565b565b6000603360009054906101000a900473ffffffffffffffffffffffffffffffffffffffff16905090565b606060988054610aaa90613671565b80601f0160208091040260200160405190810160405280929190818152602001828054610ad690613671565b8015610b235780601f10610af857610100808354040283529160200191610b23565b820191906000526020600020905b815481529060010190602001808311610b0657829003601f168201915b5050505050905090565b610b35611178565b73ffffffffffffffffffffffffffffffffffffffff168273ffffffffffffffffffffffffffffffffffffffff161415610ba3576040517f08c379a0000000000000000000000000000000000000000000000000000000008152600401610b9a90613231565b60405180910390fd5b80609c6000610bb0611178565b73ffffffffffffffffffffffffffffffffffffffff1673ffffffffffffffffffffffffffffffffffffffff16815260200190815260200160002060008473ffffffffffffffffffffffffffffffffffffffff1673ffffffffffffffffffffffffffffffffffffffff16815260200190815260200160002060006101000a81548160ff0219169083151502179055508173ffffffffffffffffffffffffffffffffffffffff16610c5d611178565b73ffffffffffffffffffffffffffffffffffffffff167f17307eab39ab6107e8899845ad3d59bd9653f200f220920489ca2b5937696c3183604051610ca29190613174565b60405180910390a35050565b610cbf610cb9611178565b83611239565b610cfe576040517f08c379a0000000000000000000000000000000000000000000000000000000008152600401610cf5906133f1565b60405180910390fd5b610d0a84848484611908565b50505050565b6060610d1b8261110c565b610d5a576040517f08c379a0000000000000000000000000000000000000000000000000000000008152600401610d5190613331565b60405180910390fd5b600060c960008481526020019081526020016000208054610d7a90613671565b80601f0160208091040260200160405190810160405280929190818152602001828054610da690613671565b8015610df35780601f10610dc857610100808354040283529160200191610df3565b820191906000526020600020905b815481529060010190602001808311610dd657829003601f168201915b505050505090506000610e04611964565b9050600081511415610e1a578192505050610e5d565b600082511115610e4f578082604051602001610e379291906130e9565b60405160208183030381529060405292505050610e5d565b610e588461197b565b925050505b919050565b6000609c60008473ffffffffffffffffffffffffffffffffffffffff1673ffffffffffffffffffffffffffffffffffffffff16815260200190815260200160002060008373ffffffffffffffffffffffffffffffffffffffff1673ffffffffffffffffffffffffffffffffffffffff16815260200190815260200160002060009054906101000a900460ff16905092915050565b6000610f00611178565b73ffffffffffffffffffffffffffffffffffffffff16610f1e610a71565b73ffffffffffffffffffffffffffffffffffffffff1614610f74576040517f08c379a0000000000000000000000000000000000000000000000000000000008152600401610f6b90613371565b60405180910390fd5b610f7e60fb611a22565b6000610f8a60fb611a38565b9050610f968482611a46565b610fa08184611c14565b8091505092915050565b610fb2611178565b73ffffffffffffffffffffffffffffffffffffffff16610fd0610a71565b73ffffffffffffffffffffffffffffffffffffffff1614611026576040517f08c379a000000000000000000000000000000000000000000000000000000000815260040161101d90613371565b60405180910390fd5b600073ffffffffffffffffffffffffffffffffffffffff168173ffffffffffffffffffffffffffffffffffffffff161415611096576040517f08c379a000000000000000000000000000000000000000000000000000000000815260040161108d906131d1565b60405180910390fd5b61109f81611842565b50565b60007f01ffc9a7000000000000000000000000000000000000000000000000000000007bffffffffffffffffffffffffffffffffffffffffffffffffffffffff1916827bffffffffffffffffffffffffffffffffffffffffffffffffffffffff1916149050919050565b60008073ffffffffffffffffffffffffffffffffffffffff166099600084815260200190815260200160002060009054906101000a900473ffffffffffffffffffffffffffffffffffffffff1673ffffffffffffffffffffffffffffffffffffffff1614159050919050565b600033905090565b81609b600083815260200190815260200160002060006101000a81548173ffffffffffffffffffffffffffffffffffffffff021916908373ffffffffffffffffffffffffffffffffffffffff160217905550808273ffffffffffffffffffffffffffffffffffffffff166111f38361087f565b73ffffffffffffffffffffffffffffffffffffffff167f8c5be1e5ebec7d5bd14f71427d1e84f3dd0314c0f7b2291e5b200ac8c7c3b92560405160405180910390a45050565b60006112448261110c565b611283576040517f08c379a000000000000000000000000000000000000000000000000000000000815260040161127a90613251565b60405180910390fd5b600061128e8361087f565b90508073ffffffffffffffffffffffffffffffffffffffff168473ffffffffffffffffffffffffffffffffffffffff1614806112fd57508373ffffffffffffffffffffffffffffffffffffffff166112e584610530565b73ffffffffffffffffffffffffffffffffffffffff16145b8061130e575061130d8185610e62565b5b91505092915050565b8273ffffffffffffffffffffffffffffffffffffffff166113378261087f565b73ffffffffffffffffffffffffffffffffffffffff161461138d576040517f08c379a000000000000000000000000000000000000000000000000000000000815260040161138490613391565b60405180910390fd5b600073ffffffffffffffffffffffffffffffffffffffff168273ffffffffffffffffffffffffffffffffffffffff1614156113fd576040517f08c379a00000000000000000000000000000000000000000000000000000000081526004016113f490613211565b60405180910390fd5b611408838383611c88565b611413600082611180565b6001609a60008573ffffffffffffffffffffffffffffffffffffffff1673ffffffffffffffffffffffffffffffffffffffff16815260200190815260200160002060008282546114639190613587565b925050819055506001609a60008473ffffffffffffffffffffffffffffffffffffffff1673ffffffffffffffffffffffffffffffffffffffff16815260200190815260200160002060008282546114ba9190613500565b92505081905550816099600083815260200190815260200160002060006101000a81548173ffffffffffffffffffffffffffffffffffffffff021916908373ffffffffffffffffffffffffffffffffffffffff160217905550808273ffffffffffffffffffffffffffffffffffffffff168473ffffffffffffffffffffffffffffffffffffffff167fddf252ad1be2c89b69c2b068fc378daa952ba7f163c4a11628f55a4df523b3ef60405160405180910390a4505050565b600060019054906101000a900460ff1680611599575060008054906101000a900460ff16155b6115d8576040517f08c379a00000000000000000000000000000000000000000000000000000000081526004016115cf906132f1565b60405180910390fd5b60008060019054906101000a900460ff161590508015611628576001600060016101000a81548160ff02191690831515021790555060016000806101000a81548160ff0219169083151502179055505b611630611c8d565b611638611d66565b6116428383611e3f565b80156116635760008060016101000a81548160ff0219169083151502179055505b505050565b600060019054906101000a900460ff168061168e575060008054906101000a900460ff16155b6116cd576040517f08c379a00000000000000000000000000000000000000000000000000000000081526004016116c4906132f1565b60405180910390fd5b60008060019054906101000a900460ff16159050801561171d576001600060016101000a81548160ff02191690831515021790555060016000806101000a81548160ff0219169083151502179055505b611725611c8d565b61172d611d66565b611735611f48565b80156117565760008060016101000a81548160ff0219169083151502179055505b50565b600060019054906101000a900460ff168061177f575060008054906101000a900460ff16155b6117be576040517f08c379a00000000000000000000000000000000000000000000000000000000081526004016117b5906132f1565b60405180910390fd5b60008060019054906101000a900460ff16159050801561180e576001600060016101000a81548160ff02191690831515021790555060016000806101000a81548160ff0219169083151502179055505b611816611c8d565b61181e612021565b801561183f5760008060016101000a81548160ff0219169083151502179055505b50565b6000603360009054906101000a900473ffffffffffffffffffffffffffffffffffffffff16905081603360006101000a81548173ffffffffffffffffffffffffffffffffffffffff021916908373ffffffffffffffffffffffffffffffffffffffff1602179055508173ffffffffffffffffffffffffffffffffffffffff168173ffffffffffffffffffffffffffffffffffffffff167f8be0079c531659141344cd1fd0a4f28419497f9722a3daafe3b4186f6b6457e060405160405180910390a35050565b611913848484611317565b61191f8484848461210a565b61195e576040517f08c379a0000000000000000000000000000000000000000000000000000000008152600401611955906131b1565b60405180910390fd5b50505050565b606060405180602001604052806000815250905090565b60606119868261110c565b6119c5576040517f08c379a00000000000000000000000000000000000000000000000000000000081526004016119bc906133b1565b60405180910390fd5b60006119cf611964565b905060008151116119ef5760405180602001604052806000815250611a1a565b806119f9846122a1565b604051602001611a0a9291906130e9565b6040516020818303038152906040525b915050919050565b6001816000016000828254019250508190555050565b600081600001549050919050565b600073ffffffffffffffffffffffffffffffffffffffff168273ffffffffffffffffffffffffffffffffffffffff161415611ab6576040517f08c379a0000000000000000000000000000000000000000000000000000000008152600401611aad90613311565b60405180910390fd5b611abf8161110c565b15611aff576040517f08c379a0000000000000000000000000000000000000000000000000000000008152600401611af6906131f1565b60405180910390fd5b611b0b60008383611c88565b6001609a60008473ffffffffffffffffffffffffffffffffffffffff1673ffffffffffffffffffffffffffffffffffffffff1681526020019081526020016000206000828254611b5b9190613500565b92505081905550816099600083815260200190815260200160002060006101000a81548173ffffffffffffffffffffffffffffffffffffffff021916908373ffffffffffffffffffffffffffffffffffffffff160217905550808273ffffffffffffffffffffffffffffffffffffffff16600073ffffffffffffffffffffffffffffffffffffffff167fddf252ad1be2c89b69c2b068fc378daa952ba7f163c4a11628f55a4df523b3ef60405160405180910390a45050565b611c1d8261110c565b611c5c576040517f08c379a0000000000000000000000000000000000000000000000000000000008152600401611c53906132d1565b60405180910390fd5b8060c960008481526020019081526020016000209080519060200190611c83929190612461565b505050565b505050565b600060019054906101000a900460ff1680611cb3575060008054906101000a900460ff16155b611cf2576040517f08c379a0000000000000000000000000000000000000000000000000000000008152600401611ce9906132f1565b60405180910390fd5b60008060019054906101000a900460ff161590508015611d42576001600060016101000a81548160ff02191690831515021790555060016000806101000a81548160ff0219169083151502179055505b8015611d635760008060016101000a81548160ff0219169083151502179055505b50565b600060019054906101000a900460ff1680611d8c575060008054906101000a900460ff16155b611dcb576040517f08c379a0000000000000000000000000000000000000000000000000000000008152600401611dc2906132f1565b60405180910390fd5b60008060019054906101000a900460ff161590508015611e1b576001600060016101000a81548160ff02191690831515021790555060016000806101000a81548160ff0219169083151502179055505b8015611e3c5760008060016101000a81548160ff0219169083151502179055505b50565b600060019054906101000a900460ff1680611e65575060008054906101000a900460ff16155b611ea4576040517f08c379a0000000000000000000000000000000000000000000000000000000008152600401611e9b906132f1565b60405180910390fd5b60008060019054906101000a900460ff161590508015611ef4576001600060016101000a81548160ff02191690831515021790555060016000806101000a81548160ff0219169083151502179055505b8260979080519060200190611f0a929190612461565b508160989080519060200190611f21929190612461565b508015611f435760008060016101000a81548160ff0219169083151502179055505b505050565b600060019054906101000a900460ff1680611f6e575060008054906101000a900460ff16155b611fad576040517f08c379a0000000000000000000000000000000000000000000000000000000008152600401611fa4906132f1565b60405180910390fd5b60008060019054906101000a900460ff161590508015611ffd576001600060016101000a81548160ff02191690831515021790555060016000806101000a81548160ff0219169083151502179055505b801561201e5760008060016101000a81548160ff0219169083151502179055505b50565b600060019054906101000a900460ff1680612047575060008054906101000a900460ff16155b612086576040517f08c379a000000000000000000000000000000000000000000000000000000000815260040161207d906132f1565b60405180910390fd5b60008060019054906101000a900460ff1615905080156120d6576001600060016101000a81548160ff02191690831515021790555060016000806101000a81548160ff0219169083151502179055505b6120e66120e1611178565b611842565b80156121075760008060016101000a81548160ff0219169083151502179055505b50565b600061212b8473ffffffffffffffffffffffffffffffffffffffff1661244e565b15612294578373ffffffffffffffffffffffffffffffffffffffff1663150b7a02612154611178565b8786866040518563ffffffff1660e01b81526004016121769493929190613128565b602060405180830381600087803b15801561219057600080fd5b505af19250505080156121c157506040513d601f19601f820116820180604052508101906121be9190612861565b60015b612244573d80600081146121f1576040519150601f19603f3d011682016040523d82523d6000602084013e6121f6565b606091505b5060008151141561223c576040517f08c379a0000000000000000000000000000000000000000000000000000000008152600401612233906131b1565b60405180910390fd5b805181602001fd5b63150b7a0260e01b7bffffffffffffffffffffffffffffffffffffffffffffffffffffffff1916817bffffffffffffffffffffffffffffffffffffffffffffffffffffffff191614915050612299565b600190505b949350505050565b606060008214156122e9576040518060400160405280600181526020017f30000000000000000000000000000000000000000000000000000000000000008152509050612449565b600082905060005b6000821461231b578080612304906136a3565b915050600a826123149190613556565b91506122f1565b60008167ffffffffffffffff81111561235d577f4e487b7100000000000000000000000000000000000000000000000000000000600052604160045260246000fd5b6040519080825280601f01601f19166020018201604052801561238f5781602001600182028036833780820191505090505b5090505b60008514612442576001826123a89190613587565b9150600a856123b791906136ec565b60306123c39190613500565b60f81b8183815181106123ff577f4e487b7100000000000000000000000000000000000000000000000000000000600052603260045260246000fd5b60200101907effffffffffffffffffffffffffffffffffffffffffffffffffffffffffffff1916908160001a905350600a8561243b9190613556565b9450612393565b8093505050505b919050565b600080823b905060008111915050919050565b82805461246d90613671565b90600052602060002090601f01602090048101928261248f57600085556124d6565b82601f106124a857805160ff19168380011785556124d6565b828001600101855582156124d6579182015b828111156124d55782518255916020019190600101906124ba565b5b5090506124e391906124e7565b5090565b5b808211156125005760008160009055506001016124e8565b5090565b60006125176125128461345d565b61342c565b90508281526020810184848401111561252f57600080fd5b61253a84828561362f565b509392505050565b60006125556125508461348d565b61342c565b90508281526020810184848401111561256d57600080fd5b61257884828561362f565b509392505050565b60008135905061258f816137ea565b92915050565b6000813590506125a481613801565b92915050565b6000813590506125b981613818565b92915050565b6000815190506125ce81613818565b92915050565b600082601f8301126125e557600080fd5b81356125f5848260208601612504565b91505092915050565b600082601f83011261260f57600080fd5b813561261f848260208601612542565b91505092915050565b6000813590506126378161382f565b92915050565b60006020828403121561264f57600080fd5b600061265d84828501612580565b91505092915050565b6000806040838503121561267957600080fd5b600061268785828601612580565b925050602061269885828601612580565b9150509250929050565b6000806000606084860312156126b757600080fd5b60006126c586828701612580565b93505060206126d686828701612580565b92505060406126e786828701612628565b9150509250925092565b6000806000806080858703121561270757600080fd5b600061271587828801612580565b945050602061272687828801612580565b935050604061273787828801612628565b925050606085013567ffffffffffffffff81111561275457600080fd5b612760878288016125d4565b91505092959194509250565b6000806040838503121561277f57600080fd5b600061278d85828601612580565b925050602061279e85828601612595565b9150509250929050565b600080604083850312156127bb57600080fd5b60006127c985828601612580565b925050602083013567ffffffffffffffff8111156127e657600080fd5b6127f2858286016125fe565b9150509250929050565b6000806040838503121561280f57600080fd5b600061281d85828601612580565b925050602061282e85828601612628565b9150509250929050565b60006020828403121561284a57600080fd5b6000612858848285016125aa565b91505092915050565b60006020828403121561287357600080fd5b6000612881848285016125bf565b91505092915050565b6000806040838503121561289d57600080fd5b600083013567ffffffffffffffff8111156128b757600080fd5b6128c3858286016125fe565b925050602083013567ffffffffffffffff8111156128e057600080fd5b6128ec858286016125fe565b9150509250929050565b60006020828403121561290857600080fd5b600061291684828501612628565b91505092915050565b612928816135bb565b82525050565b612937816135cd565b82525050565b6000612948826134bd565b61295281856134d3565b935061296281856020860161363e565b61296b816137d9565b840191505092915050565b6000612981826134c8565b61298b81856134e4565b935061299b81856020860161363e565b6129a4816137d9565b840191505092915050565b60006129ba826134c8565b6129c481856134f5565b93506129d481856020860161363e565b80840191505092915050565b60006129ed6032836134e4565b91507f4552433732313a207472616e7366657220746f206e6f6e20455243373231526560008301527f63656976657220696d706c656d656e74657200000000000000000000000000006020830152604082019050919050565b6000612a536026836134e4565b91507f4f776e61626c653a206e6577206f776e657220697320746865207a65726f206160008301527f64647265737300000000000000000000000000000000000000000000000000006020830152604082019050919050565b6000612ab9601c836134e4565b91507f4552433732313a20746f6b656e20616c7265616479206d696e746564000000006000830152602082019050919050565b6000612af96024836134e4565b91507f4552433732313a207472616e7366657220746f20746865207a65726f2061646460008301527f72657373000000000000000000000000000000000000000000000000000000006020830152604082019050919050565b6000612b5f6019836134e4565b91507f4552433732313a20617070726f766520746f2063616c6c6572000000000000006000830152602082019050919050565b6000612b9f602c836134e4565b91507f4552433732313a206f70657261746f7220717565727920666f72206e6f6e657860008301527f697374656e7420746f6b656e00000000000000000000000000000000000000006020830152604082019050919050565b6000612c056038836134e4565b91507f4552433732313a20617070726f76652063616c6c6572206973206e6f74206f7760008301527f6e6572206e6f7220617070726f76656420666f7220616c6c00000000000000006020830152604082019050919050565b6000612c6b602a836134e4565b91507f4552433732313a2062616c616e636520717565727920666f7220746865207a6560008301527f726f2061646472657373000000000000000000000000000000000000000000006020830152604082019050919050565b6000612cd16029836134e4565b91507f4552433732313a206f776e657220717565727920666f72206e6f6e657869737460008301527f656e7420746f6b656e00000000000000000000000000000000000000000000006020830152604082019050919050565b6000612d37602e836134e4565b91507f45524337323155524953746f726167653a2055524920736574206f66206e6f6e60008301527f6578697374656e7420746f6b656e0000000000000000000000000000000000006020830152604082019050919050565b6000612d9d602e836134e4565b91507f496e697469616c697a61626c653a20636f6e747261637420697320616c72656160008301527f647920696e697469616c697a65640000000000000000000000000000000000006020830152604082019050919050565b6000612e036020836134e4565b91507f4552433732313a206d696e7420746f20746865207a65726f20616464726573736000830152602082019050919050565b6000612e436031836134e4565b91507f45524337323155524953746f726167653a2055524920717565727920666f722060008301527f6e6f6e6578697374656e7420746f6b656e0000000000000000000000000000006020830152604082019050919050565b6000612ea9602c836134e4565b91507f4552433732313a20617070726f76656420717565727920666f72206e6f6e657860008301527f697374656e7420746f6b656e00000000000000000000000000000000000000006020830152604082019050919050565b6000612f0f6020836134e4565b91507f4f776e61626c653a2063616c6c6572206973206e6f7420746865206f776e65726000830152602082019050919050565b6000612f4f6029836134e4565b91507f4552433732313a207472616e73666572206f6620746f6b656e2074686174206960008301527f73206e6f74206f776e00000000000000000000000000000000000000000000006020830152604082019050919050565b6000612fb5602f836134e4565b91507f4552433732314d657461646174613a2055524920717565727920666f72206e6f60008301527f6e6578697374656e7420746f6b656e00000000000000000000000000000000006020830152604082019050919050565b600061301b6021836134e4565b91507f4552433732313a20617070726f76616c20746f2063757272656e74206f776e6560008301527f72000000000000000000000000000000000000000000000000000000000000006020830152604082019050919050565b60006130816031836134e4565b91507f4552433732313a207472616e736665722063616c6c6572206973206e6f74206f60008301527f776e6572206e6f7220617070726f7665640000000000000000000000000000006020830152604082019050919050565b6130e381613625565b82525050565b60006130f582856129af565b915061310182846129af565b91508190509392505050565b6000602082019050613122600083018461291f565b92915050565b600060808201905061313d600083018761291f565b61314a602083018661291f565b61315760408301856130da565b8181036060830152613169818461293d565b905095945050505050565b6000602082019050613189600083018461292e565b92915050565b600060208201905081810360008301526131a98184612976565b905092915050565b600060208201905081810360008301526131ca816129e0565b9050919050565b600060208201905081810360008301526131ea81612a46565b9050919050565b6000602082019050818103600083015261320a81612aac565b9050919050565b6000602082019050818103600083015261322a81612aec565b9050919050565b6000602082019050818103600083015261324a81612b52565b9050919050565b6000602082019050818103600083015261326a81612b92565b9050919050565b6000602082019050818103600083015261328a81612bf8565b9050919050565b600060208201905081810360008301526132aa81612c5e565b9050919050565b600060208201905081810360008301526132ca81612cc4565b9050919050565b600060208201905081810360008301526132ea81612d2a565b9050919050565b6000602082019050818103600083015261330a81612d90565b9050919050565b6000602082019050818103600083015261332a81612df6565b9050919050565b6000602082019050818103600083015261334a81612e36565b9050919050565b6000602082019050818103600083015261336a81612e9c565b9050919050565b6000602082019050818103600083015261338a81612f02565b9050919050565b600060208201905081810360008301526133aa81612f42565b9050919050565b600060208201905081810360008301526133ca81612fa8565b9050919050565b600060208201905081810360008301526133ea8161300e565b9050919050565b6000602082019050818103600083015261340a81613074565b9050919050565b600060208201905061342660008301846130da565b92915050565b6000604051905081810181811067ffffffffffffffff82111715613453576134526137aa565b5b8060405250919050565b600067ffffffffffffffff821115613478576134776137aa565b5b601f19601f8301169050602081019050919050565b600067ffffffffffffffff8211156134a8576134a76137aa565b5b601f19601f8301169050602081019050919050565b600081519050919050565b600081519050919050565b600082825260208201905092915050565b600082825260208201905092915050565b600081905092915050565b600061350b82613625565b915061351683613625565b9250827fffffffffffffffffffffffffffffffffffffffffffffffffffffffffffffffff0382111561354b5761354a61371d565b5b828201905092915050565b600061356182613625565b915061356c83613625565b92508261357c5761357b61374c565b5b828204905092915050565b600061359282613625565b915061359d83613625565b9250828210156135b0576135af61371d565b5b828203905092915050565b60006135c682613605565b9050919050565b60008115159050919050565b60007fffffffff0000000000000000000000000000000000000000000000000000000082169050919050565b600073ffffffffffffffffffffffffffffffffffffffff82169050919050565b6000819050919050565b82818337600083830152505050565b60005b8381101561365c578082015181840152602081019050613641565b8381111561366b576000848401525b50505050565b6000600282049050600182168061368957607f821691505b6020821081141561369d5761369c61377b565b5b50919050565b60006136ae82613625565b91507fffffffffffffffffffffffffffffffffffffffffffffffffffffffffffffffff8214156136e1576136e061371d565b5b600182019050919050565b60006136f782613625565b915061370283613625565b9250826137125761371161374c565b5b828206905092915050565b7f4e487b7100000000000000000000000000000000000000000000000000000000600052601160045260246000fd5b7f4e487b7100000000000000000000000000000000000000000000000000000000600052601260045260246000fd5b7f4e487b7100000000000000000000000000000000000000000000000000000000600052602260045260246000fd5b7f4e487b7100000000000000000000000000000000000000000000000000000000600052604160045260246000fd5b6000601f19601f8301169050919050565b6137f3816135bb565b81146137fe57600080fd5b50565b61380a816135cd565b811461381557600080fd5b50565b613821816135d9565b811461382c57600080fd5b50565b61383881613625565b811461384357600080fd5b5056fea26469706673582212200535e05dc0ae9428ab9f6457d39608920f68100516bbcf96d1079b7e055c5ad164736f6c63430008000033",
  "linkReferences": {},
  "deployedLinkReferences": {}
}