{
  "_format": "hh-sol-artifact-1",
  "contractName": "DuoNFT",
  "sourceName": "contracts/DuoNFT.sol",
  "abi": [
    {
      "anonymous": false,
      "inputs": [
        {
          "indexed": true,
          "internalType": "address",
          "name": "owner",
          "type": "address"
        },
        {
          "indexed": true,
          "internalType": "address",
          "name": "approved",
          "type": "address"
        },
        {
          "indexed": true,
          "internalType": "uint256",
          "name": "tokenId",
          "type": "uint256"
        }
      ],
      "name": "Approval",
      "type": "event"
    },
    {
      "anonymous": false,
      "inputs": [
        {
          "indexed": true,
          "internalType": "address",
          "name": "owner",
          "type": "address"
        },
        {
          "indexed": true,
          "internalType": "address",
          "name": "operator",
          "type": "address"
        },
        {
          "indexed": false,
          "internalType": "bool",
          "name": "approved",
          "type": "bool"
        }
      ],
      "name": "ApprovalForAll",
      "type": "event"
    },
    {
      "anonymous": false,
      "inputs": [
        {
          "indexed": true,
          "internalType": "address",
          "name": "previousOwner",
          "type": "address"
        },
        {
          "indexed": true,
          "internalType": "address",
          "name": "newOwner",
          "type": "address"
        }
      ],
      "name": "OwnershipTransferred",
      "type": "event"
    },
    {
      "anonymous": false,
      "inputs": [
        {
          "indexed": true,
          "internalType": "address",
          "name": "from",
          "type": "address"
        },
        {
          "indexed": true,
          "internalType": "address",
          "name": "to",
          "type": "address"
        },
        {
          "indexed": true,
          "internalType": "uint256",
          "name": "tokenId",
          "type": "uint256"
        }
      ],
      "name": "Transfer",
      "type": "event"
    },
    {
      "inputs": [
        {
          "internalType": "address",
          "name": "to",
          "type": "address"
        },
        {
          "internalType": "uint256",
          "name": "tokenId",
          "type": "uint256"
        }
      ],
      "name": "approve",
      "outputs": [],
      "stateMutability": "nonpayable",
      "type": "function"
    },
    {
      "inputs": [
        {
          "internalType": "address",
          "name": "owner",
          "type": "address"
        }
      ],
      "name": "balanceOf",
      "outputs": [
        {
          "internalType": "uint256",
          "name": "",
          "type": "uint256"
        }
      ],
      "stateMutability": "view",
      "type": "function"
    },
    {
      "inputs": [
        {
          "internalType": "uint256",
          "name": "tokenId",
          "type": "uint256"
        }
      ],
      "name": "getApproved",
      "outputs": [
        {
          "internalType": "address",
          "name": "",
          "type": "address"
        }
      ],
      "stateMutability": "view",
      "type": "function"
    },
    {
      "inputs": [
        {
          "internalType": "string",
          "name": "name",
          "type": "string"
        },
        {
          "internalType": "string",
          "name": "symbol",
          "type": "string"
        }
      ],
      "name": "initialize",
      "outputs": [],
      "stateMutability": "nonpayable",
      "type": "function"
    },
    {
      "inputs": [
        {
          "internalType": "address",
          "name": "owner",
          "type": "address"
        },
        {
          "internalType": "address",
          "name": "operator",
          "type": "address"
        }
      ],
      "name": "isApprovedForAll",
      "outputs": [
        {
          "internalType": "bool",
          "name": "",
          "type": "bool"
        }
      ],
      "stateMutability": "view",
      "type": "function"
    },
    {
      "inputs": [
        {
          "internalType": "address",
          "name": "recipient",
          "type": "address"
        },
        {
          "internalType": "string",
          "name": "_tokenURI",
          "type": "string"
        }
      ],
      "name": "mintNFT",
      "outputs": [
        {
          "internalType": "uint256",
          "name": "",
          "type": "uint256"
        }
      ],
      "stateMutability": "nonpayable",
      "type": "function"
    },
    {
      "inputs": [],
      "name": "name",
      "outputs": [
        {
          "internalType": "string",
          "name": "",
          "type": "string"
        }
      ],
      "stateMutability": "view",
      "type": "function"
    },
    {
      "inputs": [],
      "name": "owner",
      "outputs": [
        {
          "internalType": "address",
          "name": "",
          "type": "address"
        }
      ],
      "stateMutability": "view",
      "type": "function"
    },
    {
      "inputs": [
        {
          "internalType": "uint256",
          "name": "tokenId",
          "type": "uint256"
        }
      ],
      "name": "ownerOf",
      "outputs": [
        {
          "internalType": "address",
          "name": "",
          "type": "address"
        }
      ],
      "stateMutability": "view",
      "type": "function"
    },
    {
      "inputs": [],
      "name": "renounceOwnership",
      "outputs": [],
      "stateMutability": "nonpayable",
      "type": "function"
    },
    {
      "inputs": [
        {
          "internalType": "address",
          "name": "from",
          "type": "address"
        },
        {
          "internalType": "address",
          "name": "to",
          "type": "address"
        },
        {
          "internalType": "uint256",
          "name": "tokenId",
          "type": "uint256"
        }
      ],
      "name": "safeTransferFrom",
      "outputs": [],
      "stateMutability": "nonpayable",
      "type": "function"
    },
    {
      "inputs": [
        {
          "internalType": "address",
          "name": "from",
          "type": "address"
        },
        {
          "internalType": "address",
          "name": "to",
          "type": "address"
        },
        {
          "internalType": "uint256",
          "name": "tokenId",
          "type": "uint256"
        },
        {
          "internalType": "bytes",
          "name": "_data",
          "type": "bytes"
        }
      ],
      "name": "safeTransferFrom",
      "outputs": [],
      "stateMutability": "nonpayable",
      "type": "function"
    },
    {
      "inputs": [
        {
          "internalType": "address",
          "name": "operator",
          "type": "address"
        },
        {
          "internalType": "bool",
          "name": "approved",
          "type": "bool"
        }
      ],
      "name": "setApprovalForAll",
      "outputs": [],
      "stateMutability": "nonpayable",
      "type": "function"
    },
    {
      "inputs": [
        {
          "internalType": "bytes4",
          "name": "interfaceId",
          "type": "bytes4"
        }
      ],
      "name": "supportsInterface",
      "outputs": [
        {
          "internalType": "bool",
          "name": "",
          "type": "bool"
        }
      ],
      "stateMutability": "view",
      "type": "function"
    },
    {
      "inputs": [],
      "name": "symbol",
      "outputs": [
        {
          "internalType": "string",
          "name": "",
          "type": "string"
        }
      ],
      "stateMutability": "view",
      "type": "function"
    },
    {
      "inputs": [
        {
          "internalType": "uint256",
          "name": "tokenId",
          "type": "uint256"
        }
      ],
      "name": "tokenURI",
      "outputs": [
        {
          "internalType": "string",
          "name": "",
          "type": "string"
        }
      ],
      "stateMutability": "view",
      "type": "function"
    },
    {
      "inputs": [
        {
          "internalType": "address",
          "name": "from",
          "type": "address"
        },
        {
          "internalType": "address",
          "name": "to",
          "type": "address"
        },
        {
          "internalType": "uint256",
          "name": "tokenId",
          "type": "uint256"
        }
      ],
      "name": "transferFrom",
      "outputs": [],
      "stateMutability": "nonpayable",
      "type": "function"
    },
    {
      "inputs": [
        {
          "internalType": "address",
          "name": "newOwner",
          "type": "address"
        }
      ],
      "name": "transferOwnership",
      "outputs": [],
      "stateMutability": "nonpayable",
      "type": "function"
    },
    {
      "inputs": [],
      "name": "upgradeTest",
      "outputs": [
        {
          "internalType": "string",
          "name": "",
          "type": "string"
        }
      ],
      "stateMutability": "pure",
      "type": "function"
    }
  ],
  "bytecode": "0x608060405234801561001057600080fd5b50613800806100206000396000f3fe608060405234801561001057600080fd5b50600436106101215760003560e01c806370a08231116100ad578063b88d4fde11610071578063b88d4fde146102f4578063c87b56dd14610310578063e985e9c514610340578063eacabe1414610370578063f2fde38b146103a057610121565b806370a0823114610262578063715018a6146102925780638da5cb5b1461029c57806395d89b41146102ba578063a22cb465146102d857610121565b806323b872dd116100f457806323b872dd146101c05780633d20b15c146101dc57806342842e0e146101fa5780634cd88b76146102165780636352211e1461023257610121565b806301ffc9a71461012657806306fdde0314610156578063081812fc14610174578063095ea7b3146101a4575b600080fd5b610140600480360381019061013b91906127bc565b6103bc565b60405161014d91906130f8565b60405180910390f35b61015e61049e565b60405161016b9190613113565b60405180910390f35b61018e6004803603810190610189919061287a565b610530565b60405161019b9190613091565b60405180910390f35b6101be60048036038101906101b99190612780565b6105b5565b005b6101da60048036038101906101d59190612626565b6106cd565b005b6101e461072d565b6040516101f19190613113565b60405180910390f35b610214600480360381019061020f9190612626565b61076a565b005b610230600480360381019061022b919061280e565b61078a565b005b61024c6004803603810190610247919061287a565b61087f565b6040516102599190613091565b60405180910390f35b61027c600480360381019061027791906125c1565b610931565b6040516102899190613395565b60405180910390f35b61029a6109e9565b005b6102a4610a71565b6040516102b19190613091565b60405180910390f35b6102c2610a9b565b6040516102cf9190613113565b60405180910390f35b6102f260048036038101906102ed91906126f0565b610b2d565b005b61030e60048036038101906103099190612675565b610cae565b005b61032a6004803603810190610325919061287a565b610d10565b6040516103379190613113565b60405180910390f35b61035a600480360381019061035591906125ea565b610e62565b60405161036791906130f8565b60405180910390f35b61038a6004803603810190610385919061272c565b610ef6565b6040516103979190613395565b60405180910390f35b6103ba60048036038101906103b591906125c1565b610f2e565b005b60007f80ac58cd000000000000000000000000000000000000000000000000000000007bffffffffffffffffffffffffffffffffffffffffffffffffffffffff1916827bffffffffffffffffffffffffffffffffffffffffffffffffffffffff1916148061048757507f5b5e139f000000000000000000000000000000000000000000000000000000007bffffffffffffffffffffffffffffffffffffffffffffffffffffffff1916827bffffffffffffffffffffffffffffffffffffffffffffffffffffffff1916145b80610497575061049682611026565b5b9050919050565b6060609780546104ad906135f5565b80601f01602080910402602001604051908101604052809291908181526020018280546104d9906135f5565b80156105265780601f106104fb57610100808354040283529160200191610526565b820191906000526020600020905b81548152906001019060200180831161050957829003601f168201915b5050505050905090565b600061053b82611090565b61057a576040517f08c379a0000000000000000000000000000000000000000000000000000000008152600401610571906132d5565b60405180910390fd5b609b600083815260200190815260200160002060009054906101000a900473ffffffffffffffffffffffffffffffffffffffff169050919050565b60006105c08261087f565b90508073ffffffffffffffffffffffffffffffffffffffff168373ffffffffffffffffffffffffffffffffffffffff161415610631576040517f08c379a000000000000000000000000000000000000000000000000000000000815260040161062890613355565b60405180910390fd5b8073ffffffffffffffffffffffffffffffffffffffff166106506110fc565b73ffffffffffffffffffffffffffffffffffffffff16148061067f575061067e816106796110fc565b610e62565b5b6106be576040517f08c379a00000000000000000000000000000000000000000000000000000000081526004016106b5906131f5565b60405180910390fd5b6106c88383611104565b505050565b6106de6106d86110fc565b826111bd565b61071d576040517f08c379a000000000000000000000000000000000000000000000000000000000815260040161071490613375565b60405180910390fd5b61072883838361129b565b505050565b60606040518060400160405280601081526020017f5570677261646520737563636573732100000000000000000000000000000000815250905090565b61078583838360405180602001604052806000815250610cae565b505050565b600060019054906101000a900460ff16806107b0575060008054906101000a900460ff16155b6107ef576040517f08c379a00000000000000000000000000000000000000000000000000000000081526004016107e690613275565b60405180910390fd5b60008060019054906101000a900460ff16159050801561083f576001600060016101000a81548160ff02191690831515021790555060016000806101000a81548160ff0219169083151502179055505b61084983836114f7565b6108516115ec565b6108596116dd565b801561087a5760008060016101000a81548160ff0219169083151502179055505b505050565b6000806099600084815260200190815260200160002060009054906101000a900473ffffffffffffffffffffffffffffffffffffffff169050600073ffffffffffffffffffffffffffffffffffffffff168173ffffffffffffffffffffffffffffffffffffffff161415610928576040517f08c379a000000000000000000000000000000000000000000000000000000000815260040161091f90613235565b60405180910390fd5b80915050919050565b60008073ffffffffffffffffffffffffffffffffffffffff168273ffffffffffffffffffffffffffffffffffffffff1614156109a2576040517f08c379a000000000000000000000000000000000000000000000000000000000815260040161099990613215565b60405180910390fd5b609a60008373ffffffffffffffffffffffffffffffffffffffff1673ffffffffffffffffffffffffffffffffffffffff168152602001908152602001600020549050919050565b6109f16110fc565b73ffffffffffffffffffffffffffffffffffffffff16610a0f610a71565b73ffffffffffffffffffffffffffffffffffffffff1614610a65576040517f08c379a0000000000000000000000000000000000000000000000000000000008152600401610a5c906132f5565b60405180910390fd5b610a6f60006117c6565b565b6000603360009054906101000a900473ffffffffffffffffffffffffffffffffffffffff16905090565b606060988054610aaa906135f5565b80601f0160208091040260200160405190810160405280929190818152602001828054610ad6906135f5565b8015610b235780601f10610af857610100808354040283529160200191610b23565b820191906000526020600020905b815481529060010190602001808311610b0657829003601f168201915b5050505050905090565b610b356110fc565b73ffffffffffffffffffffffffffffffffffffffff168273ffffffffffffffffffffffffffffffffffffffff161415610ba3576040517f08c379a0000000000000000000000000000000000000000000000000000000008152600401610b9a906131b5565b60405180910390fd5b80609c6000610bb06110fc565b73ffffffffffffffffffffffffffffffffffffffff1673ffffffffffffffffffffffffffffffffffffffff16815260200190815260200160002060008473ffffffffffffffffffffffffffffffffffffffff1673ffffffffffffffffffffffffffffffffffffffff16815260200190815260200160002060006101000a81548160ff0219169083151502179055508173ffffffffffffffffffffffffffffffffffffffff16610c5d6110fc565b73ffffffffffffffffffffffffffffffffffffffff167f17307eab39ab6107e8899845ad3d59bd9653f200f220920489ca2b5937696c3183604051610ca291906130f8565b60405180910390a35050565b610cbf610cb96110fc565b836111bd565b610cfe576040517f08c379a0000000000000000000000000000000000000000000000000000000008152600401610cf590613375565b60405180910390fd5b610d0a8484848461188c565b50505050565b6060610d1b82611090565b610d5a576040517f08c379a0000000000000000000000000000000000000000000000000000000008152600401610d51906132b5565b60405180910390fd5b600060c960008481526020019081526020016000208054610d7a906135f5565b80601f0160208091040260200160405190810160405280929190818152602001828054610da6906135f5565b8015610df35780601f10610dc857610100808354040283529160200191610df3565b820191906000526020600020905b815481529060010190602001808311610dd657829003601f168201915b505050505090506000610e046118e8565b9050600081511415610e1a578192505050610e5d565b600082511115610e4f578082604051602001610e3792919061306d565b60405160208183030381529060405292505050610e5d565b610e58846118ff565b925050505b919050565b6000609c60008473ffffffffffffffffffffffffffffffffffffffff1673ffffffffffffffffffffffffffffffffffffffff16815260200190815260200160002060008373ffffffffffffffffffffffffffffffffffffffff1673ffffffffffffffffffffffffffffffffffffffff16815260200190815260200160002060009054906101000a900460ff16905092915050565b6000610f0260fb6119a6565b6000610f0e60fb6119bc565b9050610f1a84826119ca565b610f248184611b98565b8091505092915050565b610f366110fc565b73ffffffffffffffffffffffffffffffffffffffff16610f54610a71565b73ffffffffffffffffffffffffffffffffffffffff1614610faa576040517f08c379a0000000000000000000000000000000000000000000000000000000008152600401610fa1906132f5565b60405180910390fd5b600073ffffffffffffffffffffffffffffffffffffffff168173ffffffffffffffffffffffffffffffffffffffff16141561101a576040517f08c379a000000000000000000000000000000000000000000000000000000000815260040161101190613155565b60405180910390fd5b611023816117c6565b50565b60007f01ffc9a7000000000000000000000000000000000000000000000000000000007bffffffffffffffffffffffffffffffffffffffffffffffffffffffff1916827bffffffffffffffffffffffffffffffffffffffffffffffffffffffff1916149050919050565b60008073ffffffffffffffffffffffffffffffffffffffff166099600084815260200190815260200160002060009054906101000a900473ffffffffffffffffffffffffffffffffffffffff1673ffffffffffffffffffffffffffffffffffffffff1614159050919050565b600033905090565b81609b600083815260200190815260200160002060006101000a81548173ffffffffffffffffffffffffffffffffffffffff021916908373ffffffffffffffffffffffffffffffffffffffff160217905550808273ffffffffffffffffffffffffffffffffffffffff166111778361087f565b73ffffffffffffffffffffffffffffffffffffffff167f8c5be1e5ebec7d5bd14f71427d1e84f3dd0314c0f7b2291e5b200ac8c7c3b92560405160405180910390a45050565b60006111c882611090565b611207576040517f08c379a00000000000000000000000000000000000000000000000000000000081526004016111fe906131d5565b60405180910390fd5b60006112128361087f565b90508073ffffffffffffffffffffffffffffffffffffffff168473ffffffffffffffffffffffffffffffffffffffff16148061128157508373ffffffffffffffffffffffffffffffffffffffff1661126984610530565b73ffffffffffffffffffffffffffffffffffffffff16145b8061129257506112918185610e62565b5b91505092915050565b8273ffffffffffffffffffffffffffffffffffffffff166112bb8261087f565b73ffffffffffffffffffffffffffffffffffffffff1614611311576040517f08c379a000000000000000000000000000000000000000000000000000000000815260040161130890613315565b60405180910390fd5b600073ffffffffffffffffffffffffffffffffffffffff168273ffffffffffffffffffffffffffffffffffffffff161415611381576040517f08c379a000000000000000000000000000000000000000000000000000000000815260040161137890613195565b60405180910390fd5b61138c838383611c0c565b611397600082611104565b6001609a60008573ffffffffffffffffffffffffffffffffffffffff1673ffffffffffffffffffffffffffffffffffffffff16815260200190815260200160002060008282546113e7919061350b565b925050819055506001609a60008473ffffffffffffffffffffffffffffffffffffffff1673ffffffffffffffffffffffffffffffffffffffff168152602001908152602001600020600082825461143e9190613484565b92505081905550816099600083815260200190815260200160002060006101000a81548173ffffffffffffffffffffffffffffffffffffffff021916908373ffffffffffffffffffffffffffffffffffffffff160217905550808273ffffffffffffffffffffffffffffffffffffffff168473ffffffffffffffffffffffffffffffffffffffff167fddf252ad1be2c89b69c2b068fc378daa952ba7f163c4a11628f55a4df523b3ef60405160405180910390a4505050565b600060019054906101000a900460ff168061151d575060008054906101000a900460ff16155b61155c576040517f08c379a000000000000000000000000000000000000000000000000000000000815260040161155390613275565b60405180910390fd5b60008060019054906101000a900460ff1615905080156115ac576001600060016101000a81548160ff02191690831515021790555060016000806101000a81548160ff0219169083151502179055505b6115b4611c11565b6115bc611cea565b6115c68383611dc3565b80156115e75760008060016101000a81548160ff0219169083151502179055505b505050565b600060019054906101000a900460ff1680611612575060008054906101000a900460ff16155b611651576040517f08c379a000000000000000000000000000000000000000000000000000000000815260040161164890613275565b60405180910390fd5b60008060019054906101000a900460ff1615905080156116a1576001600060016101000a81548160ff02191690831515021790555060016000806101000a81548160ff0219169083151502179055505b6116a9611c11565b6116b1611cea565b6116b9611ecc565b80156116da5760008060016101000a81548160ff0219169083151502179055505b50565b600060019054906101000a900460ff1680611703575060008054906101000a900460ff16155b611742576040517f08c379a000000000000000000000000000000000000000000000000000000000815260040161173990613275565b60405180910390fd5b60008060019054906101000a900460ff161590508015611792576001600060016101000a81548160ff02191690831515021790555060016000806101000a81548160ff0219169083151502179055505b61179a611c11565b6117a2611fa5565b80156117c35760008060016101000a81548160ff0219169083151502179055505b50565b6000603360009054906101000a900473ffffffffffffffffffffffffffffffffffffffff16905081603360006101000a81548173ffffffffffffffffffffffffffffffffffffffff021916908373ffffffffffffffffffffffffffffffffffffffff1602179055508173ffffffffffffffffffffffffffffffffffffffff168173ffffffffffffffffffffffffffffffffffffffff167f8be0079c531659141344cd1fd0a4f28419497f9722a3daafe3b4186f6b6457e060405160405180910390a35050565b61189784848461129b565b6118a38484848461208e565b6118e2576040517f08c379a00000000000000000000000000000000000000000000000000000000081526004016118d990613135565b60405180910390fd5b50505050565b606060405180602001604052806000815250905090565b606061190a82611090565b611949576040517f08c379a000000000000000000000000000000000000000000000000000000000815260040161194090613335565b60405180910390fd5b60006119536118e8565b90506000815111611973576040518060200160405280600081525061199e565b8061197d84612225565b60405160200161198e92919061306d565b6040516020818303038152906040525b915050919050565b6001816000016000828254019250508190555050565b600081600001549050919050565b600073ffffffffffffffffffffffffffffffffffffffff168273ffffffffffffffffffffffffffffffffffffffff161415611a3a576040517f08c379a0000000000000000000000000000000000000000000000000000000008152600401611a3190613295565b60405180910390fd5b611a4381611090565b15611a83576040517f08c379a0000000000000000000000000000000000000000000000000000000008152600401611a7a90613175565b60405180910390fd5b611a8f60008383611c0c565b6001609a60008473ffffffffffffffffffffffffffffffffffffffff1673ffffffffffffffffffffffffffffffffffffffff1681526020019081526020016000206000828254611adf9190613484565b92505081905550816099600083815260200190815260200160002060006101000a81548173ffffffffffffffffffffffffffffffffffffffff021916908373ffffffffffffffffffffffffffffffffffffffff160217905550808273ffffffffffffffffffffffffffffffffffffffff16600073ffffffffffffffffffffffffffffffffffffffff167fddf252ad1be2c89b69c2b068fc378daa952ba7f163c4a11628f55a4df523b3ef60405160405180910390a45050565b611ba182611090565b611be0576040517f08c379a0000000000000000000000000000000000000000000000000000000008152600401611bd790613255565b60405180910390fd5b8060c960008481526020019081526020016000209080519060200190611c079291906123e5565b505050565b505050565b600060019054906101000a900460ff1680611c37575060008054906101000a900460ff16155b611c76576040517f08c379a0000000000000000000000000000000000000000000000000000000008152600401611c6d90613275565b60405180910390fd5b60008060019054906101000a900460ff161590508015611cc6576001600060016101000a81548160ff02191690831515021790555060016000806101000a81548160ff0219169083151502179055505b8015611ce75760008060016101000a81548160ff0219169083151502179055505b50565b600060019054906101000a900460ff1680611d10575060008054906101000a900460ff16155b611d4f576040517f08c379a0000000000000000000000000000000000000000000000000000000008152600401611d4690613275565b60405180910390fd5b60008060019054906101000a900460ff161590508015611d9f576001600060016101000a81548160ff02191690831515021790555060016000806101000a81548160ff0219169083151502179055505b8015611dc05760008060016101000a81548160ff0219169083151502179055505b50565b600060019054906101000a900460ff1680611de9575060008054906101000a900460ff16155b611e28576040517f08c379a0000000000000000000000000000000000000000000000000000000008152600401611e1f90613275565b60405180910390fd5b60008060019054906101000a900460ff161590508015611e78576001600060016101000a81548160ff02191690831515021790555060016000806101000a81548160ff0219169083151502179055505b8260979080519060200190611e8e9291906123e5565b508160989080519060200190611ea59291906123e5565b508015611ec75760008060016101000a81548160ff0219169083151502179055505b505050565b600060019054906101000a900460ff1680611ef2575060008054906101000a900460ff16155b611f31576040517f08c379a0000000000000000000000000000000000000000000000000000000008152600401611f2890613275565b60405180910390fd5b60008060019054906101000a900460ff161590508015611f81576001600060016101000a81548160ff02191690831515021790555060016000806101000a81548160ff0219169083151502179055505b8015611fa25760008060016101000a81548160ff0219169083151502179055505b50565b600060019054906101000a900460ff1680611fcb575060008054906101000a900460ff16155b61200a576040517f08c379a000000000000000000000000000000000000000000000000000000000815260040161200190613275565b60405180910390fd5b60008060019054906101000a900460ff16159050801561205a576001600060016101000a81548160ff02191690831515021790555060016000806101000a81548160ff0219169083151502179055505b61206a6120656110fc565b6117c6565b801561208b5760008060016101000a81548160ff0219169083151502179055505b50565b60006120af8473ffffffffffffffffffffffffffffffffffffffff166123d2565b15612218578373ffffffffffffffffffffffffffffffffffffffff1663150b7a026120d86110fc565b8786866040518563ffffffff1660e01b81526004016120fa94939291906130ac565b602060405180830381600087803b15801561211457600080fd5b505af192505050801561214557506040513d601f19601f8201168201806040525081019061214291906127e5565b60015b6121c8573d8060008114612175576040519150601f19603f3d011682016040523d82523d6000602084013e61217a565b606091505b506000815114156121c0576040517f08c379a00000000000000000000000000000000000000000000000000000000081526004016121b790613135565b60405180910390fd5b805181602001fd5b63150b7a0260e01b7bffffffffffffffffffffffffffffffffffffffffffffffffffffffff1916817bffffffffffffffffffffffffffffffffffffffffffffffffffffffff19161491505061221d565b600190505b949350505050565b6060600082141561226d576040518060400160405280600181526020017f300000000000000000000000000000000000000000000000000000000000000081525090506123cd565b600082905060005b6000821461229f57808061228890613627565b915050600a8261229891906134da565b9150612275565b60008167ffffffffffffffff8111156122e1577f4e487b7100000000000000000000000000000000000000000000000000000000600052604160045260246000fd5b6040519080825280601f01601f1916602001820160405280156123135781602001600182028036833780820191505090505b5090505b600085146123c65760018261232c919061350b565b9150600a8561233b9190613670565b60306123479190613484565b60f81b818381518110612383577f4e487b7100000000000000000000000000000000000000000000000000000000600052603260045260246000fd5b60200101907effffffffffffffffffffffffffffffffffffffffffffffffffffffffffffff1916908160001a905350600a856123bf91906134da565b9450612317565b8093505050505b919050565b600080823b905060008111915050919050565b8280546123f1906135f5565b90600052602060002090601f016020900481019282612413576000855561245a565b82601f1061242c57805160ff191683800117855561245a565b8280016001018555821561245a579182015b8281111561245957825182559160200191906001019061243e565b5b509050612467919061246b565b5090565b5b8082111561248457600081600090555060010161246c565b5090565b600061249b612496846133e1565b6133b0565b9050828152602081018484840111156124b357600080fd5b6124be8482856135b3565b509392505050565b60006124d96124d484613411565b6133b0565b9050828152602081018484840111156124f157600080fd5b6124fc8482856135b3565b509392505050565b6000813590506125138161376e565b92915050565b60008135905061252881613785565b92915050565b60008135905061253d8161379c565b92915050565b6000815190506125528161379c565b92915050565b600082601f83011261256957600080fd5b8135612579848260208601612488565b91505092915050565b600082601f83011261259357600080fd5b81356125a38482602086016124c6565b91505092915050565b6000813590506125bb816137b3565b92915050565b6000602082840312156125d357600080fd5b60006125e184828501612504565b91505092915050565b600080604083850312156125fd57600080fd5b600061260b85828601612504565b925050602061261c85828601612504565b9150509250929050565b60008060006060848603121561263b57600080fd5b600061264986828701612504565b935050602061265a86828701612504565b925050604061266b868287016125ac565b9150509250925092565b6000806000806080858703121561268b57600080fd5b600061269987828801612504565b94505060206126aa87828801612504565b93505060406126bb878288016125ac565b925050606085013567ffffffffffffffff8111156126d857600080fd5b6126e487828801612558565b91505092959194509250565b6000806040838503121561270357600080fd5b600061271185828601612504565b925050602061272285828601612519565b9150509250929050565b6000806040838503121561273f57600080fd5b600061274d85828601612504565b925050602083013567ffffffffffffffff81111561276a57600080fd5b61277685828601612582565b9150509250929050565b6000806040838503121561279357600080fd5b60006127a185828601612504565b92505060206127b2858286016125ac565b9150509250929050565b6000602082840312156127ce57600080fd5b60006127dc8482850161252e565b91505092915050565b6000602082840312156127f757600080fd5b600061280584828501612543565b91505092915050565b6000806040838503121561282157600080fd5b600083013567ffffffffffffffff81111561283b57600080fd5b61284785828601612582565b925050602083013567ffffffffffffffff81111561286457600080fd5b61287085828601612582565b9150509250929050565b60006020828403121561288c57600080fd5b600061289a848285016125ac565b91505092915050565b6128ac8161353f565b82525050565b6128bb81613551565b82525050565b60006128cc82613441565b6128d68185613457565b93506128e68185602086016135c2565b6128ef8161375d565b840191505092915050565b60006129058261344c565b61290f8185613468565b935061291f8185602086016135c2565b6129288161375d565b840191505092915050565b600061293e8261344c565b6129488185613479565b93506129588185602086016135c2565b80840191505092915050565b6000612971603283613468565b91507f4552433732313a207472616e7366657220746f206e6f6e20455243373231526560008301527f63656976657220696d706c656d656e74657200000000000000000000000000006020830152604082019050919050565b60006129d7602683613468565b91507f4f776e61626c653a206e6577206f776e657220697320746865207a65726f206160008301527f64647265737300000000000000000000000000000000000000000000000000006020830152604082019050919050565b6000612a3d601c83613468565b91507f4552433732313a20746f6b656e20616c7265616479206d696e746564000000006000830152602082019050919050565b6000612a7d602483613468565b91507f4552433732313a207472616e7366657220746f20746865207a65726f2061646460008301527f72657373000000000000000000000000000000000000000000000000000000006020830152604082019050919050565b6000612ae3601983613468565b91507f4552433732313a20617070726f766520746f2063616c6c6572000000000000006000830152602082019050919050565b6000612b23602c83613468565b91507f4552433732313a206f70657261746f7220717565727920666f72206e6f6e657860008301527f697374656e7420746f6b656e00000000000000000000000000000000000000006020830152604082019050919050565b6000612b89603883613468565b91507f4552433732313a20617070726f76652063616c6c6572206973206e6f74206f7760008301527f6e6572206e6f7220617070726f76656420666f7220616c6c00000000000000006020830152604082019050919050565b6000612bef602a83613468565b91507f4552433732313a2062616c616e636520717565727920666f7220746865207a6560008301527f726f2061646472657373000000000000000000000000000000000000000000006020830152604082019050919050565b6000612c55602983613468565b91507f4552433732313a206f776e657220717565727920666f72206e6f6e657869737460008301527f656e7420746f6b656e00000000000000000000000000000000000000000000006020830152604082019050919050565b6000612cbb602e83613468565b91507f45524337323155524953746f726167653a2055524920736574206f66206e6f6e60008301527f6578697374656e7420746f6b656e0000000000000000000000000000000000006020830152604082019050919050565b6000612d21602e83613468565b91507f496e697469616c697a61626c653a20636f6e747261637420697320616c72656160008301527f647920696e697469616c697a65640000000000000000000000000000000000006020830152604082019050919050565b6000612d87602083613468565b91507f4552433732313a206d696e7420746f20746865207a65726f20616464726573736000830152602082019050919050565b6000612dc7603183613468565b91507f45524337323155524953746f726167653a2055524920717565727920666f722060008301527f6e6f6e6578697374656e7420746f6b656e0000000000000000000000000000006020830152604082019050919050565b6000612e2d602c83613468565b91507f4552433732313a20617070726f76656420717565727920666f72206e6f6e657860008301527f697374656e7420746f6b656e00000000000000000000000000000000000000006020830152604082019050919050565b6000612e93602083613468565b91507f4f776e61626c653a2063616c6c6572206973206e6f7420746865206f776e65726000830152602082019050919050565b6000612ed3602983613468565b91507f4552433732313a207472616e73666572206f6620746f6b656e2074686174206960008301527f73206e6f74206f776e00000000000000000000000000000000000000000000006020830152604082019050919050565b6000612f39602f83613468565b91507f4552433732314d657461646174613a2055524920717565727920666f72206e6f60008301527f6e6578697374656e7420746f6b656e00000000000000000000000000000000006020830152604082019050919050565b6000612f9f602183613468565b91507f4552433732313a20617070726f76616c20746f2063757272656e74206f776e6560008301527f72000000000000000000000000000000000000000000000000000000000000006020830152604082019050919050565b6000613005603183613468565b91507f4552433732313a207472616e736665722063616c6c6572206973206e6f74206f60008301527f776e6572206e6f7220617070726f7665640000000000000000000000000000006020830152604082019050919050565b613067816135a9565b82525050565b60006130798285612933565b91506130858284612933565b91508190509392505050565b60006020820190506130a660008301846128a3565b92915050565b60006080820190506130c160008301876128a3565b6130ce60208301866128a3565b6130db604083018561305e565b81810360608301526130ed81846128c1565b905095945050505050565b600060208201905061310d60008301846128b2565b92915050565b6000602082019050818103600083015261312d81846128fa565b905092915050565b6000602082019050818103600083015261314e81612964565b9050919050565b6000602082019050818103600083015261316e816129ca565b9050919050565b6000602082019050818103600083015261318e81612a30565b9050919050565b600060208201905081810360008301526131ae81612a70565b9050919050565b600060208201905081810360008301526131ce81612ad6565b9050919050565b600060208201905081810360008301526131ee81612b16565b9050919050565b6000602082019050818103600083015261320e81612b7c565b9050919050565b6000602082019050818103600083015261322e81612be2565b9050919050565b6000602082019050818103600083015261324e81612c48565b9050919050565b6000602082019050818103600083015261326e81612cae565b9050919050565b6000602082019050818103600083015261328e81612d14565b9050919050565b600060208201905081810360008301526132ae81612d7a565b9050919050565b600060208201905081810360008301526132ce81612dba565b9050919050565b600060208201905081810360008301526132ee81612e20565b9050919050565b6000602082019050818103600083015261330e81612e86565b9050919050565b6000602082019050818103600083015261332e81612ec6565b9050919050565b6000602082019050818103600083015261334e81612f2c565b9050919050565b6000602082019050818103600083015261336e81612f92565b9050919050565b6000602082019050818103600083015261338e81612ff8565b9050919050565b60006020820190506133aa600083018461305e565b92915050565b6000604051905081810181811067ffffffffffffffff821117156133d7576133d661372e565b5b8060405250919050565b600067ffffffffffffffff8211156133fc576133fb61372e565b5b601f19601f8301169050602081019050919050565b600067ffffffffffffffff82111561342c5761342b61372e565b5b601f19601f8301169050602081019050919050565b600081519050919050565b600081519050919050565b600082825260208201905092915050565b600082825260208201905092915050565b600081905092915050565b600061348f826135a9565b915061349a836135a9565b9250827fffffffffffffffffffffffffffffffffffffffffffffffffffffffffffffffff038211156134cf576134ce6136a1565b5b828201905092915050565b60006134e5826135a9565b91506134f0836135a9565b925082613500576134ff6136d0565b5b828204905092915050565b6000613516826135a9565b9150613521836135a9565b925082821015613534576135336136a1565b5b828203905092915050565b600061354a82613589565b9050919050565b60008115159050919050565b60007fffffffff0000000000000000000000000000000000000000000000000000000082169050919050565b600073ffffffffffffffffffffffffffffffffffffffff82169050919050565b6000819050919050565b82818337600083830152505050565b60005b838110156135e05780820151818401526020810190506135c5565b838111156135ef576000848401525b50505050565b6000600282049050600182168061360d57607f821691505b60208210811415613621576136206136ff565b5b50919050565b6000613632826135a9565b91507fffffffffffffffffffffffffffffffffffffffffffffffffffffffffffffffff821415613665576136646136a1565b5b600182019050919050565b600061367b826135a9565b9150613686836135a9565b925082613696576136956136d0565b5b828206905092915050565b7f4e487b7100000000000000000000000000000000000000000000000000000000600052601160045260246000fd5b7f4e487b7100000000000000000000000000000000000000000000000000000000600052601260045260246000fd5b7f4e487b7100000000000000000000000000000000000000000000000000000000600052602260045260246000fd5b7f4e487b7100000000000000000000000000000000000000000000000000000000600052604160045260246000fd5b6000601f19601f8301169050919050565b6137778161353f565b811461378257600080fd5b50565b61378e81613551565b811461379957600080fd5b50565b6137a58161355d565b81146137b057600080fd5b50565b6137bc816135a9565b81146137c757600080fd5b5056fea2646970667358221220d92c2e46f4446ef6906ed603acb18ef40141ede8ac2fef0c900020a3fc47dc3a64736f6c63430008000033",
  "linkReferences": {},
  "deployedLinkReferences": {}
}